:020000040800F2
:1000000000500020312A0008812A0008812A0008B7
:10001000812A0008812A0008812A000800000000C7
:10002000000000000000000000000000812A00081D
:10003000812A000800000000812A0008812A0008A7
:10004000812A0008812A0008812A0008812A0008E4
:10005000812A0008812A0008D5180008F91800082C
:100060001D1900084119000865190008812A0008B7
:10007000812A0008812A0008812A0008812A0008B4
:10008000812A0008812A0008812A0008812A0008A4
:10009000812A0008812A0008812A0008891900089D
:1000A000812A000865200008812A0008812A0008AA
:1000B0002D20000891200008BD200008812A00089A
:1000C000812A0008812A0008812A0008812A000864
:1000D000812A00081D240008312400084524000856
:1000E000311A0008812A000800000000812A000857
:1000F000812A0008812A0008812A0008812A000834
:10010000812A0008812A0008812A0008812A000823
:10011000812A0008812A0008812A0008812A000813
:10012000812A0008812A0008812A0008812A000803
:1001300010B5054C237833B9044B13B10448AFF321
:1001400000800123237010BDF0010020000000009A
:100150001845000808B5034B1BB103490348AFF32A
:10016000008008BD00000000F401002018450008D0
:10017000034613F8012B002AFBD1181A01387047E7
:1001800081F0004102E000BF83F0004330B54FEA48
:1001900041044FEA430594EA050F08BF90EA020FB5
:1001A0001FBF54EA000C55EA020C7FEA645C7FEA48
:1001B000655C00F0E2804FEA5454D4EB5555B8BF6B
:1001C0006D420CDD2C4480EA020281EA030382EADC
:1001D000000083EA010180EA020281EA0303362D6E
:1001E00088BF30BD11F0004F4FEA01314FF4801C41
:1001F0004CEA113102D0404261EB410113F0004F53
:100200004FEA03334CEA133302D0524263EB430309
:1002100094EA050F00F0A780A4F10104D5F1200EA7
:100220000DDB02FA0EFC22FA05F2801841F1000102
:1002300003FA0EF2801843FA05F359410EE0A5F1D6
:1002400020050EF1200E012A03FA0EFC28BF4CF007
:10025000020C43FA05F3C01851EBE37101F00045BD
:1002600007D54FF0000EDCF1000C7EEB00006EEBCA
:100270000101B1F5801F1BD3B1F5001F0CD3490854
:100280005FEA30004FEA3C0C04F101044FEA4452AB
:1002900012F5800F80F09A80BCF1004F08BF5FEA32
:1002A000500C50F1000041EB045141EA050130BD12
:1002B0005FEA4C0C404141EB010111F4801FA4F1B5
:1002C0000104E9D191F0000F04BF01460020B1FA0A
:1002D00081F308BF2033A3F10B03B3F120020CDA42
:1002E0000C3208DD02F1140CC2F10C0201FA0CF020
:1002F00021FA02F10CE002F11402D8BFC2F1200C85
:1003000001FA02F120FA0CFCDCBF41EA0C0190403A
:10031000E41AA2BF01EB0451294330BD6FEA040483
:100320001F3C1CDA0C340EDC04F11404C4F120026E
:1003300020FA04F001FA02F340EA030021FA04F380
:1003400045EA030130BDC4F10C04C4F1200220FAD7
:1003500002F001FA04F340EA0300294630BD21FA15
:1003600004F0294630BD94F0000F83F4801306BFDB
:1003700081F480110134013D4EE77FEA645C18BFCF
:100380007FEA655C29D094EA050F08BF90EA020F66
:1003900005D054EA000C04BF1946104630BD91EA5E
:1003A000030F1EBF0021002030BD5FEA545C05D161
:1003B0004000494128BF41F0004130BD14F58004A0
:1003C0003CBF01F5801130BD01F0004545F0FE4114
:1003D00041F470014FF0000030BD7FEA645C1ABF49
:1003E000194610467FEA655C1CBF0B46024650EA80
:1003F000013406BF52EA033591EA030F41F40021AC
:1004000030BD00BF90F0000F04BF0021704730B531
:100410004FF4806404F132044FF000054FF0000106
:1004200050E700BF90F0000F04BF0021704730B5C7
:100430004FF4806404F1320410F0004548BF40429C
:100440004FF000013EE700BF42004FEAE2014FEAF1
:1004500031014FEA02701FBF12F07F4393F07F4FCC
:1004600081F06051704732F07F4208BF704793F0CF
:100470007F4F04BF41F40021704730B54FF46074E2
:1004800001F0004521F000411CE700BF50EA0102E5
:1004900008BF704730B54FF000050AE050EA01028E
:1004A00008BF704730B511F0004502D5404261EBFE
:1004B00041014FF4806404F132045FEA915C3FF43F
:1004C000D8AE4FF003025FEADC0C18BF03325FEADC
:1004D000DC0C18BF033202EBDC02C2F1200300FA8D
:1004E00003FC20FA02F001FA03FE40EA0E0021FAB2
:1004F00002F11444BDE600BF70B54FF0FF0C4CF4A0
:10050000E06C1CEA11541DBF1CEA135594EA0C0F51
:1005100095EA0C0F00F0DEF82C4481EA030621EA8C
:100520004C5123EA4C5350EA013518BF52EA0335C7
:1005300041F4801143F4801338D0A0FB02CE4FF079
:100540000005E1FB02E506F00042E0FB03E54FF0A9
:100550000006E1FB03569CF0000F18BF4EF0010EA1
:10056000A4F1FF04B6F5007F64F5407404D25FEA9D
:100570004E0E6D4146EB060642EAC62141EA555150
:100580004FEAC52040EA5E504FEACE2EB4F1FD0C92
:1005900088BFBCF5E06F1ED8BEF1004F08BF5FEA10
:1005A000500E50F1000041EB045170BD06F00046C2
:1005B00046EA010140EA020081EA0301B4EB5C046F
:1005C000C2BFD4EB0C0541EA045170BD41F4801167
:1005D0004FF0000E013C00F3AB8014F1360FDEBF8C
:1005E000002001F0004170BDC4F10004203C35DA68
:1005F0000C341BDC04F11404C4F1200500FA05F3EB
:1006000020FA04F001FA05F240EA020001F000428B
:1006100021F0004110EBD37021FA04F642EB060101
:100620005EEA430E08BF20EAD37070BDC4F10C042B
:10063000C4F1200500FA04F320FA05F001FA04F2EF
:1006400040EA020001F0004110EBD37041F10001DB
:100650005EEA430E08BF20EAD37070BDC4F12005E6
:1006600000FA05F24EEA020E20FA04F301FA05F24E
:1006700043EA020321FA04F001F0004121FA04F2F6
:1006800020EA020000EBD3705EEA430E08BF20EAC6
:10069000D37070BD94F0000F0FD101F00046400000
:1006A00041EB010111F4801F08BF013CF7D041EA82
:1006B000060195F0000F18BF704703F00046520086
:1006C00043EB030313F4801F08BF013DF7D043EA57
:1006D0000603704794EA0C0F0CEA135518BF95EA0D
:1006E0000C0F0CD050EA410618BF52EA4306D1D194
:1006F00081EA030101F000414FF0000070BD50EAB3
:10070000410606BF1046194652EA430619D094EA3C
:100710000C0F02D150EA013613D195EA0C0F05D126
:1007200052EA03361CBF104619460AD181EA03017A
:1007300001F0004141F0FE4141F470014FF0000032
:1007400070BD41F0FE4141F4780170BD70B54FF0CD
:10075000FF0C4CF4E06C1CEA11541DBF1CEA13554D
:1007600094EA0C0F95EA0C0F00F0A7F8A4EB05042F
:1007700081EA030E52EA03354FEA013100F0888026
:100780004FEA03334FF0805545EA131343EA1263EF
:100790004FEA022245EA111545EA10654FEA0026A4
:1007A0000EF000419D4208BF964244F1FD0404F55D
:1007B000407402D25B084FEA3202B61A65EB0305B9
:1007C0005B084FEA32024FF480104FF4002CB6EB76
:1007D000020E75EB030E22BFB61A754640EA0C00F6
:1007E0005B084FEA3202B6EB020E75EB030E22BF36
:1007F000B61A754640EA5C005B084FEA3202B6EB77
:10080000020E75EB030E22BFB61A754640EA9C0035
:100810005B084FEA3202B6EB020E75EB030E22BF05
:10082000B61A754640EADC0055EA060E18D04FEAC3
:10083000051545EA16754FEA06164FEAC30343EA63
:1008400052734FEAC2025FEA1C1CC0D111F4801F30
:100850000BD141EA00014FF000004FF0004CB6E729
:1008600011F4801F04BF01430020B4F1FD0C88BFC8
:10087000BCF5E06F3FF6AFAEB5EB030C04BFB6EBD3
:10088000020C5FEA500C50F1000041EB045170BDC6
:100890000EF0004E4EEA113114EB5C04C2BFD4EBF3
:1008A0000C0541EA045170BD41F480114FF0000E77
:1008B000013C90E645EA060E8DE60CEA135594EAF3
:1008C0000C0F08BF95EA0C0F3FF43BAF94EA0C0FF6
:1008D0000AD150EA01347FF434AF95EA0C0F7FF46B
:1008E00025AF104619462CE795EA0C0F06D152EABF
:1008F00003353FF4FDAE1046194622E750EA4106A3
:1009000018BF52EA43067FF4C5AE50EA41047FF4B3
:100910000DAF52EA43057FF4EBAE12E74FF0FF3C18
:1009200006E000BF4FF0010C02E000BF4FF0010CE9
:100930004DF804CD4FEA410C7FEA6C5C4FEA430C62
:1009400018BF7FEA6C5C1BD001B050EA410C0CBFB1
:1009500052EA430C91EA030F02BF90EA020F002013
:10096000704710F1000F91EA030F58BF994208BF7A
:1009700090422CBFD8176FEAE37040F00100704737
:100980004FEA410C7FEA6C5C02D150EA013C07D18E
:100990004FEA430C7FEA6C5CD6D152EA033CD3D0D9
:1009A0005DF8040B704700BF8446104662468C46D3
:1009B0001946634600E000BF01B5FFF7B7FF002806
:1009C00048BF10F1000F01BD4DF808EDFFF7F4FF2F
:1009D0000CBF012000205DF808FB00BF4DF808EDBA
:1009E000FFF7EAFF34BF012000205DF808FB00BFDD
:1009F0004DF808EDFFF7E0FF94BF012000205DF8FF
:100A000008FB00BF4DF808EDFFF7CEFF94BF0120B3
:100A100000205DF808FB00BF4DF808EDFFF7C4FFAC
:100A200034BF012000205DF808FB00BF4FEA410CF5
:100A30007FEA6C5C02D150EA013C0AD14FEA430CD8
:100A40007FEA6C5C02D152EA033C02D14FF0000015
:100A500070474FF0010070474FEA410212F5001253
:100A600015D211D56FF47873B3EB625212D94FEAF5
:100A7000C12343F0004343EA505311F0004F23FADF
:100A800002F018BF404270474FF00000704750EA34
:100A9000013005D111F0004008BF6FF000407047F1
:100AA0004FF00000704700BF80F0004002E000BF40
:100AB00081F0004142001FBF5FEA410392EA030F49
:100AC0007FEA226C7FEA236C6AD04FEA1262D2EB93
:100AD0001363C1BFD218414048404140B8BF5B4298
:100AE000192B88BF704710F0004F40F4000020F031
:100AF0007F4018BF404211F0004F41F4000121F047
:100B00007F4118BF494292EA030F3FD0A2F1010290
:100B100041FA03FC10EB0C00C3F1200301FA03F1CE
:100B200000F0004302D5494260EB4000B0F5000FF1
:100B300013D3B0F1807F06D340084FEA310102F1B0
:100B40000102FE2A51D2B1F1004F40EBC25008BF62
:100B500020F0010040EA03007047490040EB00002C
:100B600010F4000FA2F10102EDD1B0FA80FCACF15B
:100B7000080CB2EB0C0200FA0CF0AABF00EBC2505A
:100B800052421843BCBFD0401843704792F0000F48
:100B900081F4000106BF80F400000132013BB5E79B
:100BA0004FEA41037FEA226C18BF7FEA236C21D011
:100BB00092EA030F04D092F0000F08BF0846704776
:100BC00090EA010F1CBF0020704712F07F4F04D144
:100BD000400028BF40F00040704712F100723CBF57
:100BE00000F50000704700F0004343F0FE4040F481
:100BF000000070477FEA226216BF08467FEA23633F
:100C00000146420206BF5FEA412390EA010F40F429
:100C1000800070474FF0000304E000BF10F0004375
:100C200048BF40425FEA000C08BF704743F096435C
:100C300001464FF000001CE050EA010208BF704777
:100C40004FF000030AE000BF50EA010208BF7047FE
:100C500011F0004302D5404261EB41015FEA010C13
:100C600002BF84460146002043F0B64308BFA3F10B
:100C70008053A3F50003BCFA8CF2083AA3EBC253ED
:100C800010DB01FA02FC634400FA02FCC2F120020C
:100C9000BCF1004F20FA02F243EB020008BF20F043
:100CA0000100704702F1200201FA02FCC2F12002A9
:100CB00050EA4C0021FA02F243EB020008BF20EA9E
:100CC000DC7070474FF0FF0C1CEAD0521EBF1CEACC
:100CD000D15392EA0C0F93EA0C0F6FD01A4480EABA
:100CE000010C400218BF5FEA41211ED04FF00063A3
:100CF00043EA501043EA5111A0FB01310CF00040CF
:100D0000B1F5000F3EBF490041EAD3715B0040EAF4
:100D1000010062F17F02FD2A1DD8B3F1004F40EBC4
:100D2000C25008BF20F00100704790F0000F0CF097
:100D3000004C08BF49024CEA502040EA51207F3A5B
:100D4000C2BFD2F1FF0340EAC250704740F4000036
:100D50004FF00003013A5DDC12F1190FDCBF00F027
:100D600000407047C2F10002410021FA02F1C2F1D5
:100D7000200200FA02FC5FEA310040F1000053EA71
:100D80004C0308BF20EADC70704792F0000F00F0BF
:100D9000004C02BF400010F4000F013AF9D040EAC5
:100DA0000C0093F0000F01F0004C02BF490011F459
:100DB000000F013BF9D041EA0C018FE70CEAD15357
:100DC00092EA0C0F18BF93EA0C0F0AD030F0004CD7
:100DD00018BF31F0004CD8D180EA010000F000408B
:100DE000704790F0000F17BF90F0004F084691F049
:100DF000000F91F0004F14D092EA0C0F01D1420283
:100E00000FD193EA0C0F03D14B0218BF084608D14B
:100E100080EA010000F0004040F0FE4040F4000095
:100E2000704740F0FE4040F4400070474FF0FF0C28
:100E30001CEAD0521EBF1CEAD15392EA0C0F93EA6F
:100E40000C0F69D0A2EB030280EA010C49024FEAC1
:100E5000402037D04FF0805343EA111143EA10137A
:100E60000CF000408B4238BF5B0042F17D024FF432
:100E7000000C8B4224BF5B1A40EA0C00B3EB510F0D
:100E800024BFA3EB510340EA5C00B3EB910F24BFF6
:100E9000A3EB910340EA9C00B3EBD10F24BFA3EB7B
:100EA000D10340EADC001B0118BF5FEA1C1CE0D143
:100EB000FD2A3FF650AF8B4240EBC25008BF20F0F6
:100EC000010070470CF0004C4CEA50207F32C2BF4A
:100ED000D2F1FF0340EAC250704740F400004FF0E7
:100EE0000003013A37E792F0000F00F0004C02BF18
:100EF000400010F4000F013AF9D040EA0C0093F0E2
:100F0000000F01F0004C02BF490011F4000F013B3B
:100F1000F9D041EA0C0195E70CEAD15392EA0C0FA3
:100F200008D142027FF47DAF93EA0C0F7FF470AFDB
:100F3000084676E793EA0C0F04D14B023FF44CAF1E
:100F400008466EE730F0004C18BF31F0004CCAD1B3
:100F500030F000427FF45CAF31F000437FF43CAFEF
:100F60005FE700BF4FF0FF3C06E000BF4FF0010C11
:100F700002E000BF4FF0010C4DF804CD4FEA4002F3
:100F80004FEA41037FEA226C18BF7FEA236C11D03D
:100F900001B052EA530C18BF90EA010F58BFB2EBF0
:100FA000030088BFC81738BF6FEAE17018BF40F070
:100FB000010070477FEA226C02D15FEA402C05D124
:100FC0007FEA236CE4D15FEA412CE1D05DF8040BA9
:100FD000704700BF844608466146FFE70FB5FFF73C
:100FE000C9FF002848BF10F1000F0FBD4DF808EDF4
:100FF000FFF7F4FF0CBF012000205DF808FB00BFE5
:101000004DF808EDFFF7EAFF34BF012000205DF83E
:1010100008FB00BF4DF808EDFFF7E0FF94BF01208B
:1010200000205DF808FB00BF4DF808EDFFF7D2FF88
:1010300094BF012000205DF808FB00BF4DF808EDCB
:10104000FFF7C8FF34BF012000205DF808FB00BF98
:1010500053B94AB9002908BF00281CBF4FF0FF311F
:101060004FF0FF3000F074B9ADF1080C6DE904CE1B
:1010700000F006F8DDF804E0DDE9022304B0704773
:101080002DE9F0478C460446089E002B4BD18A423E
:10109000154667D9B2FA82F24AB1C2F1200701FAC5
:1010A00002F320FA07F7954047EA030C94404FEA11
:1010B000154EBCFBFEF71FFA85F80EFB17C307FBA6
:1010C00008F9210C41EA0343994509D9EB1807F1C6
:1010D000FF3180F01C81994540F21981023F2B4479
:1010E000A3EB0903B3FBFEF00EFB103300FB08F18A
:1010F000A4B244EA0344A14209D92C1900F1FF33F8
:1011000080F00781A14240F2048102382C4440EA79
:1011100007400027641A1EB10023D440C6E90043EB
:101120003946BDE8F0878B4209D9002E00F0EC80EB
:101130000027C6E9000138463946BDE8F087B3FA12
:1011400083F7002F48D18B4202D3824200F2FB800A
:10115000841A61EB030301209C46002EE0D0C6E90F
:10116000004CDDE702B9FFDEB2FA82F2002A40F05D
:101170008F800127491B4FEA15481FFA85F9B1FBFB
:10118000F8FE08FB1E1109FB0EF04FEA144C4CEA66
:101190000143984207D9EB180EF1FF3102D2984271
:1011A00000F2CD808E461B1AB3FBF8F008FB10331B
:1011B00009FB00F9A4B244EA0344A14507D92C195C
:1011C00000F1FF3302D2A14500F2B6801846A4EB2D
:1011D000090440EA0E409EE7C7F12005BB4022FA11
:1011E00005FC4CEA030C21FA05F44FEA1C4EB4FB53
:1011F000FEF91FFA8CF80EFB194420FA05F3B940EA
:1012000009FB08FA19430B0C43EA0444A24502FA0D
:1012100007F200FA07F30BD91CEB040409F1FF30C5
:1012200080F08880A24540F28580A9F102096444DB
:10123000A4EB0A04B4FBFEF00EFB104400FB08FA1A
:1012400089B241EA0444A24508D91CEB040400F128
:10125000FF316BD2A24569D90238644440EA0940A3
:10126000A0FB0289A4EB0A044C454146CE4654D368
:1012700051D0002E69D05A1A64EB0E0404FA05F519
:1012800022FA07F3FC401D43C6E90054002747E754
:101290009540C2F1200321FA03F04FEA1548B0FB54
:1012A000F8F71FFA85F908FB170024FA03F39140B9
:1012B00007FB09FC0B43190C41EA00418C4504FA79
:1012C00002F407D9691807F1FF3031D28C452FD9C4
:1012D000023F2944A1EB0C01B1FBF8F008FB101C04
:1012E00000FB09FE99B241EA0C418E4507D9691805
:1012F00000F1FF3318D28E4516D902382944A1EBEC
:101300000E0140EA07473AE73746304608E70F46FE
:10131000E6E61846FBE64345ABD2B8EB020169EBC3
:101320000C0201389646A4E71846E8E7084695E718
:101330000746CFE781467BE702382C4447E7AEF10A
:10134000020E2B442FE7384607E73746E8E600BF92
:10135000704700BF80B582B000AF786039607B68AD
:10136000642B0DD83B68642B0AD8164B44221A70A4
:10137000002301221349144800F08AFF03231CE0D4
:101380007B68642B0AD80F4B4C221A700023012271
:101390000C490D4800F07CFF02230EE03B68642BF3
:1013A0000AD8084B52221A70002301220549064828
:1013B00000F06EFF012300E0002318460837BD4609
:1013C00080BD00BF000000200044004090B587B001
:1013D00000AFF860B9607A604FF000037B61FA6893
:1013E000BB689A4212D9FA68BB68D31A1846FFF74D
:1013F00011FC04460E497868FFF718FD03461946AC
:101400002046FFF713FD03467B6102E04FF0000327
:101410007B6108497869FFF711FE0346002B02D073
:101420004FF000037B617B6918461C37BD4690BDB9
:101430000024744900007A4480B582B000AF78601F
:1014400039601D497868FFF7EFFD0346002B0DD08A
:101450003B68592B0AD8194B52221A7000230122DB
:101460001649174800F014FF032320E03B68592B6E
:101470000AD8124B52221A70002301220F49104839
:1014800000F006FF022312E00B497868FFF7CCFD5D
:101490000346002B0AD0094B52221A700023012266
:1014A0000649074800F0F4FE012300E00023184637
:1014B0000837BD4680BD00BF0000C84301000020C2
:1014C0000044004080B588B000AF78600423BB774B
:1014D0000223FB777B681B88BB837B681B6907F152
:1014E0001C021146184600F078FB7A6807F10803E1
:1014F000043207CA83E8070002233B7501237B758A
:101500007B685B69BB6107F10803184600F0D6F9F8
:1015100000BF2037BD4680BD80B582B000AF786087
:1015200039607B6818697B681B880122194600F0C6
:10153000DFFB3A6800210A2000F056FC7B6818693E
:101540007B681B880022194600F0D2FB00BF0837D9
:10155000BD4680BD80B483B000AF0346FB80FB88EE
:101560000F2B54D801A252F823F000BFAD1500088C
:10157000BB150008C9150008D7150008E5150008B7
:10158000F3150008F3150008F3150008F31500081B
:10159000F3150008011600080116000801160008DE
:1015A0000116000801160008011600081A4B1B68F6
:1015B000194A43F04003136029E0174B1B68164A91
:1015C00043F08003136022E0134B1B68124A43F47C
:1015D000807313601BE0104B1B680F4A43F40073C9
:1015E000136014E00C4B1B680B4A43F480631360D8
:1015F0000DE0094B1B68084A43F40003136006E042
:10160000064B1B68054A43F48073136000BF00BF9C
:101610000C37BD4680BC704700E100E004E100E00B
:1016200080B483B000AF0346FB80FB880E2B52D8FA
:1016300001A252F823F000BF7516000883160008B7
:10164000911600089F160008AD160008BB1600088A
:10165000BB160008BB160008BB160008BB16000826
:10166000C9160008C9160008C9160008C9160008DE
:10167000C91600081A4B1B68194A43F0400313604F
:1016800029E0174B1B68164A43F08003136022E0E1
:10169000134B1B68124A43F4807313601BE0104B1A
:1016A0001B680F4A43F40073136014E00C4B1B6873
:1016B0000B4A43F4806313600DE0094B1B68084A32
:1016C00043F40003136006E0064B1B68054A43F42D
:1016D0008073136000BF00BF0C37BD4680BC7047ED
:1016E00080E100E084E100E080B584B000AF786084
:1016F0007B681B893B810123BB727B685B6807F1B8
:1017000008021146184600F068FA7B681B889B089F
:101710009BB2FB737B681B88DBB203F00303DBB275
:101720009B00BB735E4AFB7B023352F82320BB7BDA
:101730000F2101FA03F3DB4318465949FB7B0240B2
:10174000023341F82320564AFB7B023352F8232010
:101750007B685B6853498B4216D07B685B68524953
:101760008B420FD07B685B6850498B4208D07B6806
:101770005B684F498B4201D1032306E0002304E05C
:10178000022302E0012300E00023B97B8B401846CE
:101790004349FB7B0243023341F82320454B9B68BE
:1017A0007A681288114601228A40D2431146414A82
:1017B0000B4093603F4BDB687A6812881146012228
:1017C0008A40D24311463B4A0B40D3607B681B7B67
:1017D000012B0FD0022B19D0002B2ED1354B9B683B
:1017E0007A681288114601228A401146314A0B4319
:1017F000936022E02F4BDB687A6812881146012241
:101800008A4011462B4A0B43D36016E0294B9B6854
:101810007A681288114601228A401146254A0B43F4
:101820009360244BDB687A681288114601228A4053
:101830001146204A0B43D36000BF7B681B881946C2
:101840007B681B691C4A42F821307B685B7B012B5B
:1018500010D1184B1B687A681288114601228A4001
:101860001146144A0B4313607B681B881846FFF728
:1018700071FE10E00F4B1B687A6812881146012236
:101880008A40D24311460B4A0B4013607B681B8889
:101890001846FFF7C5FE00BF1037BD4680BD00BF2C
:1018A0000000014000080140000C01400010014010
:1018B00000140140000401408C02002080B582B079
:1018C00000AF78607868FFF70FFF00BF0837BD46AC
:1018D00080BD000080B500AF054B5B69044A43F052
:1018E00001035361034B1B68984700BF80BD00BFD5
:1018F000000401408C02002080B500AF054B5B69FD
:10190000044A43F002035361034B5B68984700BFEE
:1019100080BD00BF000401408C02002080B500AFF4
:10192000054B5B69044A43F004035361034B9B6816
:10193000984700BF80BD00BF000401408C0200201A
:1019400080B500AF054B5B69044A43F0080353615F
:10195000034BDB68984700BF80BD00BF0004014017
:101960008C02002080B500AF054B5B69044A43F050
:1019700010035361034B1B69984700BF80BD00BF34
:10198000000401408C02002080B500AF264B5B694B
:1019900003F02003002B08D0234B5B69224A43F05D
:1019A00020035361214B5B6998471F4B5B6903F030
:1019B0004003002B08D01C4B5B691B4A43F04003DB
:1019C00053611A4B9B699847174B5B6903F080037F
:1019D000002B08D0144B5B69134A43F0800353611A
:1019E000124BDB699847104B5B6903F48073002B43
:1019F00008D00D4B5B690C4A43F4807353610B4B69
:101A00001B6A9847084B5B6903F40073002B08D0EE
:101A1000054B5B69044A43F400735361034B5B6AF3
:101A2000984700BF80BD00BF000401408C02002029
:101A300080B500AF354B5B6903F48063002B08D0A1
:101A4000324B5B69314A43F480635361304B9B6A8C
:101A500098472E4B5B6903F48063002B08D02B4B17
:101A60005B692A4A43F480635361294B9B6A984718
:101A7000264B5B6903F40063002B08D0234B5B69A2
:101A8000224A43F400635361214BDB6A98471F4BA2
:101A90005B6903F48053002B08D01C4B5B691B4A25
:101AA00043F4805353611A4B1B6B9847174B5B6988
:101AB00003F40053002B08D0144B5B69134A43F422
:101AC00000535361124B5B6B9847104B5B6903F4F7
:101AD0008043002B08D00D4B5B690C4A43F48043D4
:101AE00053610B4B9B6B9847084B5B6903F40043B6
:101AF000002B08D0054B5B69044A43F40043536153
:101B0000034BDB6B984700BF80BD00BF0004014062
:101B10008C02002080B483B000AF0346FB80FB88BA
:101B2000802B42D0802B11DC082B36D0082B06DC12
:101B3000022B2ED0042B2ED0012B28D047E0202BB7
:101B40002FD0402B2FD0102B29D040E0B3F5006FC1
:101B500033D0B3F5006F09DCB3F5007F29D0B3F5BE
:101B6000806F28D0B3F5807F21D030E0B3F5005FDF
:101B700027D0B3F5005F03DCB3F5805F1FD026E00C
:101B8000B3F5804F1FD0B3F5004F1ED01FE00023E8
:101B90001EE004231CE008231AE00C2318E01023A5
:101BA00016E0142314E0182312E01C2310E0002395
:101BB0000EE004230CE008230AE00C2308E01023C5
:101BC00006E0142304E0182302E01C2300E00023B5
:101BD00018460C37BD4680BC704790B585B000AF45
:101BE000786039600023BB600023FB733B681B886F
:101BF000802B02D97B68043300E07B68BB603B68C4
:101C00001B881846FFF786FF02460F239340DA43EE
:101C1000BB681B681A40BB681A603B689B78042B42
:101C20000BD03B689B78052B07D03B689B78062B35
:101C300003D03B689B78072B0ED13B689B78043B15
:101C40009B005AB23B68DB785BB203F00F035BB2D8
:101C500013435BB2FB7339E03B689B78012B03D0E5
:101C60003B689B78002B0CD13B689B789B005BB258
:101C700003F00F035AB297F90F3013435BB2FB73B3
:101C800024E03B689B78082B04D1FB7B43F00403E2
:101C9000FB731BE0FB7B43F00803FB733B689B7803
:101CA000022B07D17B68DB683A6812881A437B688D
:101CB000DA600BE03B689B78032B07D17B68DB681D
:101CC0003A681288D2431A407B68DA60FC7B3B6832
:101CD0001B881846FFF71EFF034604FA03F2BB6891
:101CE0001B681A43BB681A6000BF1437BD4690BD1D
:101CF00080B483B000AF78600B467B8013467B7066
:101D00007B78012B06D17B68DA687B881A437B6875
:101D1000DA6006E07B68DB687A88D2431A407B6829
:101D2000DA6000BF0C37BD4680BC704780B400AF9E
:101D30000B4B5B689B0803F00303012B06D0012BC0
:101D400002D3022B04D005E0064B04E0064B02E070
:101D5000064B00E000231846BD4680BC704700BF1C
:101D60000010024000127A00006A18000024F400FB
:101D700080B500AFFFF7DAFF0146054B5B681B0932
:101D800003F00F03034AD35C21FA03F3184680BD26
:101D9000001002405C45000880B500AFFFF7E8FF87
:101DA0000146054B5B681B0A03F00703034AD35C3B
:101DB00021FA03F3184680BD001002405445000884
:101DC00080B500AFFFF7D4FF0146054B5B68DB0A27
:101DD00003F00703034AD35C21FA03F3184680BDDE
:101DE000001002405445000880B489B000AF03469B
:101DF0003A60FB800B467B714F4B01221A704F4BB0
:101E0000DB694E4A43F00103D3614FF080431B6806
:101E10004FF0804223F0010313600123FB7700237E
:101E2000BB6101237B614FF47A733B610223FB7337
:101E30007B79002B0DD14FF47A733B61FB8840F620
:101E4000B832934202D96423FB7330E00A23FB7358
:101E50002DE03B4B3B61FB8840F6B832934202D900
:101E60000A23FB7323E00523FB7320E03A683B69F8
:101E7000B2FBF3F3FA8802FB03F27B69B2FBF3F3E4
:101E8000BB61BB69B3F5FA4F0FD37B694FF6FA72AA
:101E9000934205D94FF6FA737B610023FB7706E086
:101EA000FB7B7A6913447B6101E00023FB77FB7FB6
:101EB000012BDBD04FF080431B684FF0804223F0B2
:101EC000010313604FF080431B684FF0804243F0E2
:101ED000040313604FF08043DB684FF0804243F00F
:101EE0000103D3604FF08042BB69D3624FF0804260
:101EF0007B69013B93624FF080435B694FF0804206
:101F000043F0010353614FF080431B684FF0804260
:101F100043F0010313600B4B1B680A4A43F08053E4
:101F2000136000BF044B1B78002BFBD100BF24378C
:101F3000BD4680BC704700BF020000200010024078
:101F400040420F0000E100E080B400AF1A4B9B69F3
:101F5000194A43F400639361184B1B68174A23F036
:101F600001031360154B1B68144A43F0040313600C
:101F7000124BDB68114A43F00103D3600F4B4FF45F
:101F80007A42DA620D4B00229A620C4B5B690B4A73
:101F900043F001035361094B1B68084A43F00103F6
:101FA0001360074B1B68064A43F00073136000BFC1
:101FB000BD4680BC704700BF00100240002C0140AD
:101FC00000E100E090B482B000AF7860124B5B6A31
:101FD0009AB2124B1A80114B1B881A46104B1B8861
:101FE00019464FF47A4303FB01F3134419467B6807
:101FF0000C4AA2FB03239B0CB1FBF3F34FF000044C
:10200000094AC2E90034084B18CB18462146083764
:10201000BD4690BC704700BF002C0140120200205A
:102020001002002083DE1B431802002080B400AFA2
:102030004FF080431B694FF0804223F0010313618E
:10204000074B00221A704FF080431B684FF080420C
:1020500023F00103136000BFBD4680BC704700BF82
:102060000200002080B400AF074B1B69064A23F032
:1020700001031361054B1B8801339AB2034B1A808D
:1020800000BFBD4680BC7047002C014010020020FC
:1020900080B400AF074B1B69064A23F001031361AC
:1020A000054B1B8801339AB2034B1A8000BFBD4613
:1020B00080BC7047000400400E02002080B400AFD6
:1020C000074B1B69064A23F001031361054B1B886C
:1020D00001339AB2034B1A8000BFBD4680BC7047E3
:1020E000000800400C02002080B582B000AF78608C
:1020F00039607B685D4A934209D15D4A3B68136051
:102100005C4B9B695B4A43F4804393611AE07B68B4
:10211000594A934209D1564A3B685360554BDB6993
:10212000544A43F40033D3610CE07B68534A934232
:1021300008D14F4A3B6893604E4BDB694D4A43F4EC
:102140008023D3617B68DB6843F400527B68DA60EC
:102150007B68DB683A6812781A437B68DA607B68D0
:10216000DB683A68127A1A437B68DA607B681B691D
:102170003A68527A1A437B681A617B681B693A682D
:10218000927A1A437B681A617B685B693A68D27AF3
:102190001A437B685A617B68344A934205D1FFF742
:1021A0000FFE0246364B1A6004E0FFF7F5FD0246CB
:1021B000334B1A60324B1A683B685B681B01B2FBF9
:1021C000F3F319012E4B1A6813469B0013449A002F
:1021D0001A443B685B689B00B2FBF3F2284B18681B
:1021E0003B685B681B01B0FBF3F3642000FB03F367
:1021F000D31A1B01234AA2FB03235B0903F00F033D
:102200000B43214A1360204B1A687B689A603B6835
:102210001B7B002B26D07B68DB683A68127B1A4355
:102220007B68DA607B68114A934206D1174B1B68C2
:10223000164A43F02003136014E07B680E4A934271
:1022400006D1124B1B68114A43F04003136009E0AA
:102250007B680A4A934205D10C4B1B680B4A43F03A
:102260008003136000BF0837BD4680BD00380140C1
:10227000D402002000100240004400400048014009
:10228000D00200201F85EB51CC02002004E100E0C9
:1022900080B489B000AFF860B96011461A460B46A9
:1022A000FB711346BB71BB68FB61BB79002B06D188
:1022B00000BFFB681B6803F08003002BF9D0FB68AC
:1022C000204A934203D1204B1B681B7A0AE0FB682B
:1022D0001E4A934203D11C4B5B681B7A02E01A4BE7
:1022E0009B681B7AFB75FB68164A934203D1164B19
:1022F0001B685B7A0AE0FB68144A934203D1124BD5
:102300005B685B7A02E0104B9B685B7ABB75FB7D78
:10231000002B12D10023BB610BE0FB691B787B759E
:102320007A7DFB685A60FB690133FB61BB6901334D
:10233000BB61FB79BA699A42EFDB00BF2437BD4627
:1023400080BC704700380140D402002000440040A7
:1023500080B584B000AF78607B682B4A934218D177
:102360004FF40073BB810623BB730123FB7307F19A
:102370000C0319462548FFF730FC4FF48063BB81FE
:102380000823BB7307F10C0319462048FFF725FC0F
:1023900036E07B681E4A934216D10423BB81062394
:1023A000BB730123FB7307F10C0319461748FFF7B2
:1023B00014FC0823BB810823BB7307F10C031946E7
:1023C0001248FFF70AFC1BE07B68124A934217D1C0
:1023D0004FF48063BB810623BB730123FB7307F1BA
:1023E0000C0319460C48FFF7F8FB4FF40063BB8160
:1023F0000823BB7307F10C0319460748FFF7EDFBF1
:1024000000BF1037BD4680BD0038014000080140C4
:102410000044004000480140000C014080B500AF7E
:10242000024B1B681B69984700BF80BDD402002087
:1024300080B500AF024B5B681B69984700BF80BD49
:10244000D402002080B500AF024B9B681B699847FF
:1024500000BF80BDD40200202DE9F04882B000AF5B
:10246000304B1B78002B0BD12F48FFF7ABFD0346F9
:102470000C462E4AC2E900342A4B01221A704CE065
:102480002948FFF79FFD03460C46294AC2E900345C
:10249000274BD3E90012254BD3E900560B461446CF
:1024A0005B1B64EB0604C7E90034D7E90056AB4672
:1024B000B4464FF000014FF000024FEA8C0242EAAE
:1024C0009B724FEA8B018B4694461BEB050B4CEB42
:1024D000060C4FF000014FF000024FEA0C1242EAE6
:1024E0001B724FEA0B111BEB010B4CEB020C1BEBAD
:1024F0000B034CEB0C049B46A4465846614642F243
:1025000010724FF00003FEF7A3FD03460C46094A84
:10251000C2E90034034B00221A7000BF0837BD46E1
:10252000BDE8F0884802002000127A00580200201E
:1025300050020020100000202DE9F04882B000AFCA
:10254000304B1B78002B0BD12F48FFF73BFD034688
:102550000C462E4AC2E900342A4B01221A704CE084
:102560002948FFF72FFD03460C46294AC2E90034EB
:10257000274BD3E90012254BD3E900560B461446EE
:102580005B1B64EB0604C7E90034D7E90056AB4691
:10259000B4464FF000014FF000024FEA8C0242EACD
:1025A0009B724FEA8B018B4694461BEB050B4CEB61
:1025B000060C4FF000014FF000024FEA0C1242EA05
:1025C0001B724FEA0B111BEB010B4CEB020C1BEBCC
:1025D0000B034CEB0C049B46A4465846614642F262
:1025E00010724FF00003FEF733FD03460C46094A14
:1025F000C2E90034034B00221A7000BF0837BD4601
:10260000BDE8F0882002002000127A006802002055
:1026100060020020280200202DE9F04882B000AFBF
:10262000394B1B78002B0BD13848FFF7CBFC034606
:102630000C46374AC2E90034334B01221A705DE080
:102640003248FFF7BFFC03460C46324AC2E9003469
:10265000304BD3E900122E4BD3E900560B461446FB
:102660005B1B64EB0604C7E90034D7E90056AB46B0
:10267000B4464FF000014FF000024FEA8C0242EAEC
:102680009B724FEA8B018B4694461BEB050B4CEB80
:10269000060C4FF000014FF000024FEA0C1242EA24
:1026A0001B724FEA0B111BEB010B4CEB020C1BEBEB
:1026B0000B034CEB0C049B46A4465846614642F281
:1026C00010724FF00003FEF7C3FC03460C46124A9B
:1026D000C2E900340C4B00221A700F4B18CB4FF498
:1026E000C8714FF00002A24208BF994206D20A4ABE
:1026F0004FF000034FF00004C2E9003400BF083778
:10270000BD46BDE8F08800BF3002002000127A000C
:1027100040020020380200200800002090B599B047
:1027200000AF944B9B69934A43F008039361914B2C
:102730009B69904A43F0040393618E4B9B698D4AD9
:1027400043F001039361FFF7FFFB042387F85E303A
:102750004023A7F85C30012387F85F3007F15C0362
:1027600019468548FFF739FA8023A7F85C3007F14E
:102770005C0319468048FFF730FA4FF48073A7F8DE
:102780005C3007F15C0319467B48FFF726FA80238B
:10279000A7F84430794A07F1480307CA83E80700DD
:1027A000774B7B65774BBB6507F144031846FEF713
:1027B00089FE2023BB85744A07F1300307CA83E8EA
:1027C00007006F4BFB63714B3B6407F12C0318460A
:1027D000FEF778FE4FF48063BB826D4A07F1180361
:1027E00007CA83E80700664B7B626A4BBB6207F14E
:1027F00014031846FEF766FE4FF4E1337B600023B6
:102800003B730023FB7200237B720C233B7000237D
:102810003B720023BB7200233B613B4619465E4876
:10282000FFF762FC5C48FFF793FD07F114035B4977
:102830001846FEF771FE07F12C0358491846FEF7BB
:102840006BFE07F1440355491846FEF765FE5348F1
:10285000FFF7B8FB03460C461A46514B1A60504B23
:102860001A68504B1B68D31A1846FEF7D3F9024674
:102870004D4B1A604C4B1B684C491846FEF7D4FB75
:102880000346002B19D04A4B18684A4B18CB1946FF
:10289000454B1B681A46FEF799FD0246464B1A60E7
:1028A0003F4B1B683F4A1360424B18CB1A46404BC4
:1028B0001A603D4B4FF000021A603F4B1A683D4BC7
:1028C00018CB19461046FEF7B7FD0346022B05D17B
:1028D000012240212848FFF70BFA04E000224021A2
:1028E0002548FFF705FA354B18CB1A46344B18CB61
:1028F00019461046FEF72EFD0346022B04D0032B8B
:102900001AD0012B0CD023E0012280211A48FFF7B6
:10291000EFF900224FF480711748FFF7E9F922E040
:1029200001224FF480711448FFF7E2F90022802160
:102930001148FFF7DDF916E0012280210E48FFF76C
:10294000D7F901224FF480710B48FFF7D1F90AE063
:10295000002280210848FFF7CBF900224FF4807154
:102960000548FFF7C5F90D4A00211920FFF73CFA89
:102970005BE700BF00100240000C0140304500083A
:1029800000080140592400083C450008392500088A
:1029900048450008192600080044004000127A004B
:1029A00070020020740200207C0200200050434886
:1029B00018000020080000207802002028020020D3
:1029C0001000002080B586B000AF7860144A154B27
:1029D000D31A7B617B693B61134B1B68002B02D1CF
:1029E000114B124A1A60104B1A687B6813443A69FB
:1029F0009A4207D200F046F802460C2313604FF0CB
:102A0000FF3309E0084B1B68FB60074B1A687B68C3
:102A10001344054A1360FB6818461837BD4680BD4D
:102A2000005000200004000080020020E802002086
:102A30000D488546AFF300800C480D490D4A002330
:102A400002E0D458C4500433C4188C42F9D30A4A63
:102A50000A4C002301E013600432A242FBD300F0D1
:102A600017F8FFF75BFEFEE7005000200000002093
:102A7000EC010020A8470008F0010020E40200203B
:102A8000FEE70000014B1868704700BF1C000020E3
:102A900070B500250C4E0D4CA41BA410A54209D105
:102AA00001F03AFD00250A4E0A4CA41BA410A542D1
:102AB00005D170BD56F8253098470135EEE756F838
:102AC000253098470135F2E7A0470008A0470008E5
:102AD000A0470008A447000803460244934200D1DF
:102AE000704703F8011BF9E7002B2DE9F0471E465C
:102AF000BBBF03F100431E4600232D2388B0149F63
:102B0000DDE9121A27F02007462F1446109D0B709E
:102B100004D0452F00D10135022300E0032307AA8A
:102B2000049206AACDE902A2CDE900352246334639
:102B300000F0A6FB472F804602D1119BDB0726D56C
:102B4000462F08EB050911D198F80030302B0AD137
:102B50000022002320463146FDF736FF18B9C5F1A3
:102B60000105CAF80050DAF8003099440022002329
:102B700020463146FDF728FF38B93022079B4B45E8
:102B800005D2591C07911A70F8E7CDF81C90404601
:102B9000079B159AA3EB0803136008B0BDE8F08704
:102BA000F7B50029B4BF2D232B230446B8BF4942F3
:102BB000092904F8022B437021DD0DF107031F469C
:102BC0000A2691FBF6F506FB1511092D01F13001DE
:102BD00003F8011C03F1FF32294609DC3031023BC6
:102BE00002F8011CBB42224604D3101A03B0F0BD08
:102BF0001346E6E713F8012B04F8012BF2E7302324
:102C000019448370021DC170EFE700002DE9F04FF9
:102C100091B00C461A9F93461E46054601F0E4F813
:102C2000036818460993FDF7A3FA00230E933B6847
:102C30000A90073323F0070303F1080294F8188081
:102C4000D4F800A03A60D3E90023C4E91223D4E900
:102C5000127929F000430B934FF0FF32A64B384610
:102C60000B99FDF7E3FE68BB4FF0FF32A24B3846ED
:102C70000B99FDF7BDFE28BB0022002338464946CC
:102C8000FDF7ACFE10B12D2384F843309B4F9C4BD5
:102C9000B8F1470F98BF1F4603234FF00009236187
:102CA0002AF00403236000965B460FAA21462846BB
:102CB00000F0E2F9013040F090804FF0FF3011B0A9
:102CC000BDE8F08F3A464B4638464946FDF7AEFE22
:102CD00010B18C4F8C4BDBE763684AF48062591C5F
:102CE0000DA80EA940D1062363604FF0000C0DF132
:102CF0003303CDE9012363682260CDE90308009323
:102D00003A464B46CDE9051C2846FFF7EDFE08F094
:102D1000DF03472B074609D10D9BD81C02DB6268F5
:102D2000934247DDA8F102085FFA88F8B8F1650F11
:102D30000D9924D80139424604F150000D91FFF756
:102D40002FFF0E9A81461318012A236102DC2268A4
:102D5000D10701D5013323619DF83330002BA2D078
:102D60002D2384F843309EE7B8F1670F00F06E81A1
:102D7000B8F1470FB9D1002BB7D10123B4E7B8F1AF
:102D8000660F19D1002963680CDD216113B922682F
:102D9000D20702D501330B4423610D9B4FF000098C
:102DA000A365D9E713B92268D00701D50233F3E749
:102DB0000123F1E74FF06708DDE90D32934205DBAF
:102DC00022682361D107E8D50133E5E7002BCCBFAA
:102DD0000123C3F102031344DEE723685A0507D435
:102DE00023693A4659462846B047013029D164E75D
:102DF000B8F1650F40F2D780D4E912010022002318
:102E0000FDF7E2FD88B30123404A59462846B04702
:102E100001303FF452AFDDE90D239A4202DB236813
:102E2000D8070ED5DDE9092359462846B0470130B9
:102E30003FF443AF002704F11A080E9B013BBB424D
:102E400009DC23689F0700F1FD80E0680F9B984232
:102E5000B8BF184633E70123424659462846B047D3
:102E600001303FF42AAF0137E7E70D9B002B2BDC45
:102E70000123264A59462846B04701303FF41DAF8A
:102E80000D9B23B90E9B13B92368D907D9D5DDE96A
:102E9000092359462846B04701303FF40EAF4FF0A2
:102EA000000804F11A090D9B5B42434501DC0E9BAF
:102EB00097E701234A4659462846B04701303FF478
:102EC000FCAE08F10108EEE70E9AA36D9A42A8BF86
:102ED0001A46002A904607DD134659463A462846C8
:102EE000B04701303FF4E9AE04F11A034FF0000A95
:102EF00028EAE8780B9315E0FFFFEF7F71450008A3
:102F00006D45000879450008754500087D450008B5
:102F100001230B9A59462846B04701303FF4CDAE05
:102F20000AF1010AD4F85890A9EB08035345EFDCE5
:102F3000DDE90D239A424F4414DB2368DA0711D4EC
:102F40000E9B0D99A3EB0902A3EB01099145A8BFC4
:102F50009146B9F1000F0DDC002729EAE97904F167
:102F60001A0818E0DDE9092359462846B047013020
:102F7000E6D1A2E64B463A4659462846B0470130CC
:102F8000EAD19AE60123424659462846B047013025
:102F90003FF493AE0137DDE90D239B1AA3EB090340
:102FA000BB42EFDC4DE70E9A012A01DCDB0738D586
:102FB00001233A4659462846B04701303FF47DAEDA
:102FC000DDE9092359462846B047013007F10107DA
:102FD0003FF473AED4E912010E9B002203F1FF38D7
:102FE0000023FDF7F1FCC0B943463A46594628464E
:102FF000B04701300DD160E60123424659462846CC
:10300000B04701303FF459AE01370E9B013BBB4244
:10301000F2DC4B4604F15002E4E6002704F11A0802
:10302000F3E70123E1E70123424659462846B0472A
:1030300001303FF442AE0137E3680F9A9B1ABB425E
:10304000F1DC02E7002704F11908F5E7002B3FF453
:1030500094AE4FF0000CCDE9051C0DF13301226058
:10306000CDE90308CDE9012100933A464B462846B5
:10307000FFF73AFD07464FE62DE9F04791461F4618
:103080008A680B6906469342B8BF1346C9F80030F8
:1030900091F843200C46DDF8208012B10133C9F8C5
:1030A00000302368990642BFD9F800300233C9F8CE
:1030B0000030256815F0060507D104F1190AE36808
:1030C000D9F800209B1AAB4229DC94F843302268DF
:1030D000003318BF012392062ED404F1430239466F
:1030E0003046C047013021D02368E56803F006036D
:1030F000042B18BF0025D9F800204FF0000908BFA5
:10310000AD1AA368226908BF25EAE5759342C4BFDA
:103110009B1AED181A344D451AD1002008E00123FE
:10312000524639463046C047013003D14FF0FF3098
:10313000BDE8F0870135C2E73020E11881F843008F
:103140005A1C94F845102244023382F84310C4E715
:103150000123224639463046C0470130E6D009F106
:103160000109D8E72DE9F74F03690C698046A342AE
:10317000C0F28480013C01F1140700F1140657F8F5
:10318000245056F824000135B0FBF5F54FEA840CC5
:1031900006EB0C0307EB0C0901939DB34FF0000AFB
:1031A0003846B646D34650F8042B93B205FB03A32A
:1031B000120C4FEA134A05FB02A29BB2ABEB0303CE
:1031C000DEF800B04FEA124A1FFA8BFB5B441FFA8D
:1031D00082FBDEF800208145CBEB124202EB23425A
:1031E0009BB243EA02434FEA224B4EF8043BDAD249
:1031F00056F80C3033B9019B043B9E421A4631D33A
:10320000C8F81040404601F025F8002826DB30467B
:103210004FF0000C013557F8041BD0F800E08BB2DA
:10322000ACEB03031FFA8EF213440A0CC2EB1E42EE
:1032300002EB23429BB243EA0243B9454FEA224CD8
:1032400040F8043BE7D256F8242006EB84032AB961
:10325000043B9E421A460BD3C8F81040284603B0E0
:10326000BDE8F08F1268043B002AC9D1013CC4E7D5
:103270001268043B002AEFD1013CEAE70020EEE7A8
:103280002DE9F04F16461F46456A95B00446DDF815
:103290008480CDE902673DB9102000F0B3FD606283
:1032A000C0E901550560C560636A196851B15A6883
:1032B000012393404A608B60204600F0EAFD002223
:1032C000636A1A603B1EAFBF0023012223F0004354
:1032D0000393ACBFC8F80030C8F80020AE4BDDF84F
:1032E0000C8033EA08031BD142F20F73209A13605B
:1032F000029B23B9C8F31300002800F04585229BE8
:1033000053B9A64B21E0A64B06930833229A1360CB
:10331000069815B0BDE8F08FA04B06930333F5E790
:10332000DDE902670022002330463946FDF74CFBF9
:10333000824660B10123209A1360229B002B00F08B
:103340002085984B229A1360013B0693E0E712AB6D
:10335000019313AB009332463B46204600F0F2FF48
:10336000C8F30A558346002D7DD0B046C7F313033A
:1033700043F07F5949F44019A5F2FF35CDF840A03C
:103380000022894B40464946FCF7FEFE7CA3D3E968
:103390000023FDF7B1F87CA3D3E90023FCF7F6FE88
:1033A000064628460F46FDF73DF879A3D3E90023EA
:1033B000FDF7A2F802460B4630463946FCF7E6FE1A
:1033C00006460F46FDF748FB0022824600233046A2
:1033D0003946FDF703FB48B15046FDF723F8324666
:1033E0003B46FDF7F1FA08B90AF1FF3ABAF1160FB8
:1033F0005AD8DDE902236D4901EBCA01D1E9000188
:10340000FDF70AFB002851D000230AF1FF3A0D9383
:10341000129B5D1B6B1E079343BF0023C5F101097F
:1034200007934FF00009BAF1000F41DB079BCDF87D
:1034300030A053440793002308931E9B092B00F2EE
:103440008F80052BC4BF043B1E931E9BC8BF002565
:10345000A3F10203D8BF0125032B00F28D80DFE822
:1034600003F07B7D2F6FDDE912531D4405F23240DE
:10347000202813DDC0F14000029B08FA00F805F295
:10348000124023FA00F048EA0000FCF7BBFF0123DA
:103490008046A1F1F879013D109371E7029BC0F1DC
:1034A000200003FA00F0F0E70123B0E70D90AFE74A
:1034B000CAF1000308930023A9EB0A090C93BCE7A7
:1034C000012309931F9B002B74DD9846049300226F
:1034D000666A7260042202F11400984271686ED923
:1034E000204600F0A2FC636A30601B68B8F10E0F42
:1034F000069300F2ED80002D00F0EA80DDE9022362
:10350000BAF1000FCDE90E2377DD284A0AF00F0348
:103510004FEA2A1602EBC303F006D3E90023CDE9F4
:103520000A2368D5DDE90E01214B0325D3E90823E1
:10353000FDF70CF9CDE9020106F00F061C4F4FE034
:10354000012309931F9B534403F10108049343464D
:10355000012BB8BF0123BAE70023B2E70023F0E74D
:103560000125002309951E934FF0FF330022049399
:10357000984612231F92AAE701230993F4E700BF9C
:1035800061436F63A787D23FB3C8608B288AC63F69
:10359000FB799F501344D33F0000F07F884500081B
:1035A0007F4500087E4500080000F83FB845000848
:1035B000904500080123049398461A46DAE7013142
:1035C0007160520087E7F10708D5DDE90A01D7E904
:1035D0000023FCF791FFCDE90A0101357610083789
:1035E000002EF0D1DDE90A23DDE90201FDF7AEF896
:1035F000CDE902011BE00225A0E700F0A480DDE98F
:103600000E01CAF10006A04B06F00F0203EBC20345
:10361000D3E90023FCF770FF02250023CDE9020166
:103620009A4F3611002E40F08380002BE0D10D9B85
:10363000002B00F08A80DDE90223CDE90A23DDE9D1
:103640000A010022924BFDF7C9F900287DD0B8F19C
:10365000000F7AD0049B002B36DDDDE90A01002241
:103660008C4BFCF749FFCDE90201049E0AF1FF37BC
:1036700001352846FCF7D6FEDDE90223FCF73CFFC6
:103680000022854BFCF782FDA1F15075CDE90A01BE
:103690000B95002E5CD1DDE9020100227F4BFCF787
:1036A00073FD0A9A2B46CDE90201FDF7B5F9002812
:1036B00040F08182DDE902010A9A05F10043FDF73D
:1036C0008DF9002840F07582DDE90E23CDE9022353
:1036D000139B002BC0F24B81BAF10E0F00F3478110
:1036E000694B03EBCA03D3E90023CDE904231F9BF5
:1036F000002B80F2D780B8F1000F00F3D38040F0A8
:103700005782DDE904010022644BFCF7F5FEDDE998
:103710000223FDF777F946464746002840F02D8200
:10372000069B069A5D1C31230AF1010A137028E2F8
:10373000F20705D5D7E90023FCF7DEFE01230135AA
:10374000761008376EE7022571E75746464690E740
:103750004D4B03EBC60353E90201099B002B48D0F4
:1037600002460B4600204E49FCF7F0FFDDE90A2334
:10377000FCF70AFDCDE90A01069DDDE90201FDF72E
:103780006BF91190FCF74EFE02460B46DDE9020193
:10379000FCF7FAFC119BCDE90201303305F8013B3F
:1037A000DDE90A23FDF71AF9002863D1DDE90223D8
:1037B00000203749FCF7E8FCDDE90A23FDF70EF9A4
:1037C000002840F0B580069BEB1A9E427FF77CAF45
:1037D000DDE90A0100222F4BFCF78EFE0022CDE925
:1037E0000A01DDE902012B4BFCF786FECDE902015F
:1037F000C3E7DDE90A23FCF77FFE069BCDE90A015A
:103800009D191E46DDE90201FDF726F91190FCF72E
:1038100009FE02460B46DDE90201FCF7B5FC119BEF
:10382000CDE90201303306F8013BAE424FF0000211
:1038300024D1DDE90A011A4BFCF7A8FC02460B462D
:10384000DDE90201FDF7E8F8002871D1DDE90A237E
:1038500000201349FCF798FC02460B46DDE9020103
:10386000FDF7BCF800283FF42FAF15F8013C6A1EA5
:10387000302B01D0BA464AE01546F6E7054BFCF777
:103880003BFECDE90201BDE7B845000890450008C0
:103890000000F03F0000244000001C4000001440E5
:1038A0000000E03F069DDDE90267DDE904233046C4
:1038B0003946FCF74BFFFDF7CFF88146FCF7B2FD28
:1038C000DDE90423FCF718FE02460B463046394674
:1038D000FCF75AFC09F1300605F8016B069E02461A
:1038E000AE1BB0450B4635D1FCF750FCDDE9042397
:1038F00006460F46FDF790F8C8B9DDE904233046C7
:103900003946FDF761F810B119F0010F0FD1594692
:10391000204600F0BEFA0023209A2B700AF1010322
:103920001360229B002B3FF4F3AC1D60F0E457467C
:1039300015F8012C6B1E392A06D1069A9A4207D136
:1039400030231370134601371A7801321A7091E749
:103950001D46EDE70022994BFCF7CEFD0022002327
:1039600006460F46FDF730F800289ED0CFE7099AAB
:10397000002A00F088801E9A012A6DDC109A002A25
:1039800066D003F233434D46089E079A01211A443C
:1039900020469944079200F01CFB0746002D0BDDE2
:1039A000079B002B08DDAB42A8BF2B46079AA9EB6B
:1039B0000309ED1AD31A0793089BEBB1099B002B5F
:1039C00065D08EB139463246204600F0A1FB5A46FA
:1039D00001460746204600F005FB59460A9020465E
:1039E00000F057FA0A9B9B46089B9A1B04D0594645
:1039F000204600F08DFB83460121204600F0E9FAC5
:103A00000C9B0646002B00F0C6811A460146204654
:103A100000F07EFB1E9B0646012B3EDC029B002B2A
:103A200037D1039BC3F31303002B34D1039B23F043
:103A300000431B0D1B052BB1079B09F10109013345
:103A40000793012308930C9B002B28D101202EE023
:103A5000129BC3F1360396E7089B08F1FF36B34289
:103A6000B7BF089B9E1BF21A0C9BBFBF08969B1802
:103A70000C930026B8F1000FB9BFA9EB080500238D
:103A80004D46434681E7089E4D46099F86E7089AC2
:103A9000ADE70023D6E7029BD4E700230893336900
:103AA00006EB8303186900F046FAC0F12000079B7B
:103AB000184410F01F0047D0C0F12003042B3BDD59
:103AC000079BC0F11C008144054403440793B9F1EE
:103AD000000F05DD59464A46204600F067FB834645
:103AE000079B002B05DD31461A46204600F05EFBA1
:103AF00006460D9B53B33146584600F0ABFB0028F9
:103B000024DA002359460A22204600F0D9F9099BFD
:103B10000AF1FF3A8346002B00F044810023394626
:103B20000A22204600F0CCF9049B0746002B4DDC0E
:103B30001E9B022B4ADD11E0C9D0079A1C331A44A0
:103B400099441D441346C1E70346F6E7B8F1000F58
:103B500036DC1E9B022B33DDCDF81080049B63B94D
:103B600031460522204600F0ABF90146064658468C
:103B700000F070FB00283FF7D3AD1F9B069D6FEA56
:103B8000030A4FF000093146204600F082F9002F69
:103B90003FF4BDAEB9F1000F05D0B94503D0494699
:103BA000204600F076F93946204600F072F9AEE67C
:103BB00000263746E1E7BA463746B1E50000244023
:103BC000099BCDF81080002B00F0F380002D05DD5F
:103BD00039462A46204600F0E9FA0746089B002BA2
:103BE0004CD07968204600F020F905463A6907F183
:103BF0000C01023292000C3000F00CF9012229462F
:103C0000204600F0D3FAB9460746069B0793029B6D
:103C100003F00103089331465846FFF7A3FA4946DB
:103C2000054600F13008584600F014FB3A46029071
:103C30003146204600F028FBC368024603BB01461C
:103C40000990584600F006FB0346099A11462046A3
:103C5000099300F01EF9099BA3B91E9A92B9089A1C
:103C600082B9B8F1390F29D0029B002B01DD05F193
:103C70003108079B5D1C83F8008084E73846C2E763
:103C80000123E3E7029A002A04DB23D11E9A0ABB30
:103C9000089AFAB9002BECDD59460122204600F0C3
:103CA00085FA3146834600F0D5FA002803DCE0D1DE
:103CB00018F0010FDDD0B8F1390FD8D1079B079A62
:103CC0005D1C3923137015F8013C6A1E392B4DD049
:103CD000013352E0079A002B02F1010506DDB8F12D
:103CE000390FEBD008F10108079BC4E7069B049A43
:103CF000EB1A934205F8018C21D0594600230A2281
:103D0000204600F0DDF8B94583464FF000034FF040
:103D10000A024946204605D100F0D2F881460746FE
:103D2000079578E700F0CCF83946814600230A224F
:103D3000204600F0C5F80746F2E74FF00009594663
:103D40000122204600F032FA3146834600F082FA22
:103D50000028B8DC02D118F0010FB4D115F8013CED
:103D60006A1E302B7FF40FAF1546F7E7069B934290
:103D700005D13123069A0AF1010A137003E71546AB
:103D8000A1E7174BFFF7E1BA229B002B7FF4BBAAF8
:103D9000144BFFF7DABA1E9B012B7FF73FAE0C9B4B
:103DA000089353E6049B002B03DC1E9B022B3FF77A
:103DB000D5AE069D31465846FFF7D4F9069B00F173
:103DC000300805F8018B049AEB1A9A42B5DD594682
:103DD00000230A22204600F073F88346EAE700BF7A
:103DE0007D4500087F450008044B1B68186A044B9A
:103DF000002808BF1846F030704700BF1C000020A4
:103E000080000020024B0146186800F0F9BA00BF9C
:103E10001C00002010B5431E0A44914200D110BD81
:103E200011F8014B03F8014FF7E770B5456A0446F6
:103E30000E463DB91020FFF7E5FF6062C0E901556D
:103E40000560C560656AEB6883B1636ADB6853F837
:103E50002600B8B9012101FA06F56A1D9200204634
:103E600000F0BFFA60B1C0E901650EE02122042133
:103E7000204600F0B6FA636AE860DB68002BE4D104
:103E8000002070BD026843F826200023C0E90333F8
:103E9000F7E770B5446A06460D463CB91020FFF7B7
:103EA000B1FF7062C0E901440460C4603DB1736A4F
:103EB0006A68DB6853F82210296043F8225070BD0D
:103EC0002DE9F0411F4606460C4600230D6901F11D
:103ED000140CDCF80000013381B202FB0171000C0C
:103EE0000F0C02FB007089B201EB00419D424FEACA
:103EF00010474CF8041BECDCD7B1A368AB4212DCD2
:103F0000616830460131FFF790FF8046226904F175
:103F10000C01023292000C30FFF77CFF2146304644
:103F2000FFF7B7FF444604EB850301355F61256168
:103F30002046BDE8F081020C12040346B2B9030426
:103F4000102013F07F4F04BF1B02083013F0704F96
:103F500004BF1B01043013F0404F04BF9B0002302C
:103F6000002B06DB5B0003D5013070470020E8E73B
:103F7000202070470368014613F007020BD0DA07D0
:103F800023D4980749BF5B089B0801200B605CBFE6
:103F90000B600220704798B2A8B910201B0C13F0D8
:103FA000FF0F04BF1B0A08301A0704BF1B090430A7
:103FB0009A0704BF9B080230DA0702D45B0806D0D8
:103FC00001300B6070471046E9E700207047202061
:103FD000704710B50C460121FFF727FF012244610D
:103FE000026110BD2DE9F74F14460A69236988461E
:103FF0009A42BEBF0B46A0461C46D8F81070D4F8B3
:104000001090D8F80830D8F8041007EB0906B3422E
:10401000B8BF0131FFF709FF00F114052B4600225C
:1040200005EB860E734516D304F1140208F1140152
:1040300002EB890301EB87070093009B01929342F7
:104040000CD8002E03DD5EF8043D002B5DD0066128
:1040500003B0BDE8F08F43F8042BE3E7B2F800B0FB
:10406000BBF1000F23D08946AC464FF0000859F849
:10407000044BDCF800A0A3B21FFA8AFA0BFB03A3DF
:104080004FEA144ADCF8004043444FEA14480BFB63
:104090000A84E24604EB13449BB243EA04434F45CF
:1040A0004FEA14484AF8043B2BD8CCF80480019B13
:1040B0000432B3F802A0BAF1000F20D08946A84616
:1040C0004FF0000B2B68B9F800C0B8F802409BB263
:1040D0000AFB0C44C4465C4443EA04434CF8043BEA
:1040E00059F8043BB8F804B01B0C0AFB03B34F4566
:1040F00003EB14434FEA134B05D8C8F804300435DA
:104100009BE7D446B3E7E046DDE7013E99E70000D0
:104110002DE9F843154612F0030206460F4607D074
:10412000214C013A002354F82220FFF7C9FE07462C
:10413000AD1035D0746A3CB91020FFF763FE706291
:10414000C0E901440460C460D6F82480D8F808406F
:104150004CB940F271213046FFF73BFF0023044683
:10416000C8F8080003604FF00008EB070AD539468D
:1041700022463046FFF736FF814639463046FFF784
:1041800088FE4F466D100BD0206838B92246214674
:104190003046FFF727FF2060C0F800800446E4E7C0
:1041A0003846BDE8F88300BF804600082DE9F04797
:1041B0000C460746164623694FEA621A0AEB0309C2
:1041C0004968A36809F10105AB4232DB3846FFF7C5
:1041D0002CFE002380461A4600F1140153452BDBC8
:1041E00020692AEAEA7A04F1140316F01F0201EBAF
:1041F0008A0103EB800C25D00020C2F1200E8A46F4
:104200001E68964030434AF8040B53F8040B9C4553
:1042100020FA0EF014D8486008B109F10205013DFA
:104220003846C8F810502146FFF733FE4046BDE837
:10423000F08701315B00C7E741F823200133CDE768
:104240005146DCE7043953F8042B9C4541F8042F10
:10425000F9D8E4E703690A6930B59B1A0CD19200DA
:10426000143014318418114454F8045D51F8042DAD
:10427000954203D005D30123184630BDA042F3D3A5
:10428000FAE74FF0FF33F7E72DE9F0470D46074611
:10429000114628461446FFF7DDFF061E08D13146B9
:1042A0003846FFF7C2FD0123C0E90436BDE8F087B8
:1042B000A4BF23462C4638466168A6BF1D4600268B
:1042C0000126FFF7B2FD4FF0000EC6602B6926698C
:1042D00004F1140205F1140902EB860709EB8308C7
:1042E00000F1140152F804AB59F8045B1FFA8AF389
:1042F0007344ACB21B1B2C0CC4EB1A4404EB2344D8
:104300009BB24FEA244EC84543EA0444944641F820
:10431000044BE7D8BC4504D351F8043D83B1066192
:10432000C4E75CF8044BA2B27244131403EB1443C9
:1043300092B242EA03424FEA234E41F8042BE9E7E6
:10434000013EE9E72DE9F3411C46DDE9086501215D
:104350009046FFF76AFDC4F31302C4F30A540746FC
:1043600034BB0192B8F1000227D002A840F8082D12
:10437000FFF700FE0099F0B1019AC0F1200302FAA4
:1043800003F30B43C2407B610192019B002B14BFDE
:1043900002210121BB613961C4B1A4F23344044458
:1043A0003460C0F135002860384602B0BDE8F081C5
:1043B00042F48012D5E77961E7E701A8FFF7DAFD5B
:1043C0000121019B39617B612030E5E7A0F2324099
:1043D00007EB810330601869FFF7ADFDC0EB4110BA
:1043E000E1E738B502FB01F4214600F009F8054683
:1043F00018B122460021FEF76FFB284638BD0000A9
:1044000070B5CD1C25F0030508350C2D38BF0C25E3
:10441000002D064601DBA94203D90C23336000209E
:1044200070BD00F069F8214A1468214691B9204C0A
:1044300023681BB9304600F03DF82060294630461D
:1044400000F038F8431C24D10C233046336000F0D0
:1044500054F8E4E70B685B1B18D40B2B0FD90B60E7
:10446000CC18CD50304600F048F804F10B00231D65
:1044700020F00700C31AD3D05A42E250D0E74B686D
:104480008C4216BF636013600C46EBE70C4649682C
:10449000CCE7C41C24F00304A04205D0211A304606
:1044A00000F008F80130CFD02560DBE7840200205F
:1044B0008802002038B50023054C054608462360D5
:1044C000FEF780FA431C02D1236803B12B6038BD8C
:1044D000E002002082B001B901A942B14BB11378CA
:1044E0000B601278101C18BF012002B070471046F4
:1044F000FBE76FF00100F8E77047704749B1FF2A0A
:104500008BBF8A230A700360012088BF4FF0FF3001
:104510007047084670470000F8B500BFF8BC08BCFB
:104520009E467047F8B500BFF8BC08BC9E46704771
:1045300006000000000801404000170004000000D1
:104540000008014010000A000F00000000080140B0
:1045500000802800000000000102030400000000A9
:1045600000000000010203040506070809494E4641
:1045700000696E66004E414E006E616E003000496B
:104580006E66696E697479004E614E00000000002D
:104590000080E03779C34143176E05B5B5B893463F
:1045A000F5F93FE9034F384D321D30F94877825A0B
:1045B0003CBF737FDD4F1575000000000000F03F29
:1045C00000000000000024400000000000005940EE
:1045D0000000000000408F40000000000088C34041
:1045E00000000000006AF8400000000080842E41B6
:1045F00000000000D01263410000000084D7974102
:104600000000000065CDCD41000000205FA0024207
:10461000000000E876483742000000A2941A6D427C
:10462000000040E59C30A2420000901EC4BCD6426F
:1046300000003426F56B0C430080E03779C341431A
:1046400000A0D8855734764300C84E676DC1AB4390
:10465000003D9160E458E143408CB5781DAF1544AE
:1046600050EFE2D6E41A4B4492D54D06CFF0804489
:10467000F64AE1C7022DB544B49DD9794378EA449E
:1046800005000000190000007D0000004300504FAD
:10469000534958002E0000202020202020202020D8
:1046A00028282828282020202020202020202020E2
:1046B0002020202020202088101010101010101012
:1046C0001010101010101004040404040404040456
:1046D00004101010101010104141414141410101DE
:1046E00001010101010101010101010101010101BA
:1046F00001011010101010104242424242420202C8
:104700000202020202020202020202020202020289
:104710000202101010102000000000000000000035
:104720000000000000000000000000000000000089
:104730000000000000000000000000000000000079
:104740000000000000000000000000000000000069
:104750000000000000000000000000000000000059
:104760000000000000000000000000000000000049
:104770000000000000000000000000000000000039
:104780000000000000000000000000000000000029
:08479000000000000000000021
:08479800E8C8FF7F01000000EA
:0447A00055010008B7
:0447A40031010008D7
:1047A80053530100000000001E000000000000003C
:1047B80028000000000000009001000020000020F8
:1047C80000000000000000000000000000000000E1
:1047D80000000000000000000000000000000000D1
:1047E80000000000000000000000000000000000C1
:1047F80000000000000000000000000000000000B1
:1048080000000000000000000000000000000000A0
:104818000000000000000000000000000000000090
:10482800430000000000000000000000000000003D
:104838000000000000000000000000000000000070
:10484800430000000000000000000000000000001D
:104858000000000000000000000000000000000050
:1048680043000000000000000000000000000000FD
:104878000000000000000000000000000000000030
:1048880043000000000000000000000000000000DD
:104898000000000000000000000000000000000010
:1048A80043000000000000000000000000000000BD
:1048B80000000000000000000000000000000000F0
:1048C800430000000000000000000000000000009D
:1048D80000000000000000000000000000000000D0
:1048E800430000000000000000000000000000007D
:1048F80000000000000000000000000000000000B0
:10490800FD440008D5440008000000009646000851
:104918009446000895460008954600089546000804
:1049280095460008954600089546000895460008F3
:104938009546000895460008FFFFFFFFFFFFFFFFB1
:10494800FFFFFFFFFFFF00000100415343494900FB
:10495800000000000000000000000000000000004F
:1049680000000000000000000000415343494900D6
:10497800000000000000000000000000000000002F
:0C49880000000000000000000000000023
:0400000508002A3194
:00000001FF
